{
  "contractName": "XRC721",
  "address": "0x897b17c9f55194cf0b3e711090BAcF6dD5367aC0",
  "abi": [
    {
      "inputs": [],
      "stateMutability": "nonpayable",
      "type": "constructor"
    },
    {
      "anonymous": false,
      "inputs": [
        {
          "indexed": true,
          "internalType": "address",
          "name": "owner",
          "type": "address"
        },
        {
          "indexed": true,
          "internalType": "address",
          "name": "approved",
          "type": "address"
        },
        {
          "indexed": true,
          "internalType": "uint256",
          "name": "tokenId",
          "type": "uint256"
        }
      ],
      "name": "Approval",
      "type": "event"
    },
    {
      "anonymous": false,
      "inputs": [
        {
          "indexed": true,
          "internalType": "address",
          "name": "owner",
          "type": "address"
        },
        {
          "indexed": true,
          "internalType": "address",
          "name": "operator",
          "type": "address"
        },
        {
          "indexed": false,
          "internalType": "bool",
          "name": "approved",
          "type": "bool"
        }
      ],
      "name": "ApprovalForAll",
      "type": "event"
    },
    {
      "anonymous": false,
      "inputs": [
        {
          "indexed": true,
          "internalType": "address",
          "name": "from",
          "type": "address"
        },
        {
          "indexed": true,
          "internalType": "address",
          "name": "to",
          "type": "address"
        },
        {
          "indexed": true,
          "internalType": "uint256",
          "name": "tokenId",
          "type": "uint256"
        }
      ],
      "name": "Transfer",
      "type": "event"
    },
    {
      "inputs": [
        {
          "internalType": "address",
          "name": "to",
          "type": "address"
        },
        {
          "internalType": "uint256",
          "name": "tokenId",
          "type": "uint256"
        }
      ],
      "name": "approve",
      "outputs": [],
      "stateMutability": "nonpayable",
      "type": "function"
    },
    {
      "inputs": [
        {
          "internalType": "address",
          "name": "owner",
          "type": "address"
        }
      ],
      "name": "balanceOf",
      "outputs": [
        {
          "internalType": "uint256",
          "name": "",
          "type": "uint256"
        }
      ],
      "stateMutability": "view",
      "type": "function",
      "constant": true
    },
    {
      "inputs": [
        {
          "internalType": "uint256",
          "name": "tokenId",
          "type": "uint256"
        }
      ],
      "name": "getApproved",
      "outputs": [
        {
          "internalType": "address",
          "name": "",
          "type": "address"
        }
      ],
      "stateMutability": "view",
      "type": "function",
      "constant": true
    },
    {
      "inputs": [
        {
          "internalType": "address",
          "name": "owner",
          "type": "address"
        },
        {
          "internalType": "address",
          "name": "operator",
          "type": "address"
        }
      ],
      "name": "isApprovedForAll",
      "outputs": [
        {
          "internalType": "bool",
          "name": "",
          "type": "bool"
        }
      ],
      "stateMutability": "view",
      "type": "function",
      "constant": true
    },
    {
      "inputs": [],
      "name": "name",
      "outputs": [
        {
          "internalType": "string",
          "name": "",
          "type": "string"
        }
      ],
      "stateMutability": "view",
      "type": "function",
      "constant": true
    },
    {
      "inputs": [
        {
          "internalType": "uint256",
          "name": "tokenId",
          "type": "uint256"
        }
      ],
      "name": "ownerOf",
      "outputs": [
        {
          "internalType": "address",
          "name": "",
          "type": "address"
        }
      ],
      "stateMutability": "view",
      "type": "function",
      "constant": true
    },
    {
      "inputs": [
        {
          "internalType": "address",
          "name": "from",
          "type": "address"
        },
        {
          "internalType": "address",
          "name": "to",
          "type": "address"
        },
        {
          "internalType": "uint256",
          "name": "tokenId",
          "type": "uint256"
        }
      ],
      "name": "safeTransferFrom",
      "outputs": [],
      "stateMutability": "nonpayable",
      "type": "function"
    },
    {
      "inputs": [
        {
          "internalType": "address",
          "name": "from",
          "type": "address"
        },
        {
          "internalType": "address",
          "name": "to",
          "type": "address"
        },
        {
          "internalType": "uint256",
          "name": "tokenId",
          "type": "uint256"
        },
        {
          "internalType": "bytes",
          "name": "data",
          "type": "bytes"
        }
      ],
      "name": "safeTransferFrom",
      "outputs": [],
      "stateMutability": "nonpayable",
      "type": "function"
    },
    {
      "inputs": [
        {
          "internalType": "address",
          "name": "operator",
          "type": "address"
        },
        {
          "internalType": "bool",
          "name": "approved",
          "type": "bool"
        }
      ],
      "name": "setApprovalForAll",
      "outputs": [],
      "stateMutability": "nonpayable",
      "type": "function"
    },
    {
      "inputs": [
        {
          "internalType": "bytes4",
          "name": "interfaceId",
          "type": "bytes4"
        }
      ],
      "name": "supportsInterface",
      "outputs": [
        {
          "internalType": "bool",
          "name": "",
          "type": "bool"
        }
      ],
      "stateMutability": "view",
      "type": "function",
      "constant": true
    },
    {
      "inputs": [],
      "name": "symbol",
      "outputs": [
        {
          "internalType": "string",
          "name": "",
          "type": "string"
        }
      ],
      "stateMutability": "view",
      "type": "function",
      "constant": true
    },
    {
      "inputs": [
        {
          "internalType": "uint256",
          "name": "tokenId",
          "type": "uint256"
        }
      ],
      "name": "tokenURI",
      "outputs": [
        {
          "internalType": "string",
          "name": "",
          "type": "string"
        }
      ],
      "stateMutability": "view",
      "type": "function",
      "constant": true
    },
    {
      "inputs": [
        {
          "internalType": "address",
          "name": "from",
          "type": "address"
        },
        {
          "internalType": "address",
          "name": "to",
          "type": "address"
        },
        {
          "internalType": "uint256",
          "name": "tokenId",
          "type": "uint256"
        }
      ],
      "name": "transferFrom",
      "outputs": [],
      "stateMutability": "nonpayable",
      "type": "function"
    },
    {
      "inputs": [
        {
          "internalType": "uint256",
          "name": "tokenId",
          "type": "uint256"
        }
      ],
      "name": "getListedForTokenId",
      "outputs": [
        {
          "components": [
            {
              "internalType": "uint256",
              "name": "tokenId",
              "type": "uint256"
            },
            {
              "internalType": "address payable",
              "name": "creator",
              "type": "address"
            },
            {
              "internalType": "address payable",
              "name": "user",
              "type": "address"
            },
            {
              "internalType": "bool",
              "name": "ableToSell",
              "type": "bool"
            }
          ],
          "internalType": "struct XRC721.ListedToken",
          "name": "",
          "type": "tuple"
        }
      ],
      "stateMutability": "view",
      "type": "function",
      "constant": true
    },
    {
      "inputs": [],
      "name": "getCurrentToken",
      "outputs": [
        {
          "internalType": "uint256",
          "name": "",
          "type": "uint256"
        }
      ],
      "stateMutability": "view",
      "type": "function",
      "constant": true
    },
    {
      "inputs": [
        {
          "internalType": "string",
          "name": "tokenURI",
          "type": "string"
        },
        {
          "internalType": "address",
          "name": "receiver",
          "type": "address"
        }
      ],
      "name": "createToken",
      "outputs": [
        {
          "internalType": "uint256",
          "name": "",
          "type": "uint256"
        }
      ],
      "stateMutability": "payable",
      "type": "function",
      "payable": true
    },
    {
      "inputs": [
        {
          "internalType": "address",
          "name": "org",
          "type": "address"
        }
      ],
      "name": "getOrganisationCertificates",
      "outputs": [
        {
          "components": [
            {
              "internalType": "uint256",
              "name": "tokenId",
              "type": "uint256"
            },
            {
              "internalType": "address payable",
              "name": "creator",
              "type": "address"
            },
            {
              "internalType": "address payable",
              "name": "user",
              "type": "address"
            },
            {
              "internalType": "bool",
              "name": "ableToSell",
              "type": "bool"
            }
          ],
          "internalType": "struct XRC721.ListedToken[]",
          "name": "",
          "type": "tuple[]"
        }
      ],
      "stateMutability": "view",
      "type": "function",
      "constant": true
    },
    {
      "inputs": [
        {
          "internalType": "address",
          "name": "user",
          "type": "address"
        }
      ],
      "name": "getUserCertificates",
      "outputs": [
        {
          "components": [
            {
              "internalType": "uint256",
              "name": "tokenId",
              "type": "uint256"
            },
            {
              "internalType": "address payable",
              "name": "creator",
              "type": "address"
            },
            {
              "internalType": "address payable",
              "name": "user",
              "type": "address"
            },
            {
              "internalType": "bool",
              "name": "ableToSell",
              "type": "bool"
            }
          ],
          "internalType": "struct XRC721.ListedToken[]",
          "name": "",
          "type": "tuple[]"
        }
      ],
      "stateMutability": "view",
      "type": "function",
      "constant": true
    }
  ],
  "bytecode": "0x60806040523480156200001157600080fd5b506040518060400160405280600c81526020017f43657274696669636174657300000000000000000000000000000000000000008152506040518060400160405280600381526020017f4345520000000000000000000000000000000000000000000000000000000000815250816000908051906020019062000096929190620000b8565b508060019080519060200190620000af929190620000b8565b505050620001cc565b828054620000c69062000197565b90600052602060002090601f016020900481019282620000ea576000855562000136565b82601f106200010557805160ff191683800117855562000136565b8280016001018555821562000136579182015b828111156200013557825182559160200191906001019062000118565b5b50905062000145919062000149565b5090565b5b80821115620001645760008160009055506001016200014a565b5090565b7f4e487b7100000000000000000000000000000000000000000000000000000000600052602260045260246000fd5b60006002820490506001821680620001b057607f821691505b602082108103620001c657620001c562000168565b5b50919050565b6134e680620001dc6000396000f3fe6080604052600436106101095760003560e01c806370a0823111610095578063a22cb46511610064578063a22cb465146103ba578063b88d4fde146103e3578063c87b56dd1461040c578063e985e9c514610449578063ef2d17461461048657610109565b806370a08231146102e557806395d89b411461032257806398c3df161461034d578063a21193771461038a57610109565b8063095ea7b3116100dc578063095ea7b3146101f05780630f3629cf1461021957806323b872dd1461025657806342842e0e1461027f5780636352211e146102a857610109565b806301ffc9a71461010e5780630385bd181461014b57806306fdde0314610188578063081812fc146101b3575b600080fd5b34801561011a57600080fd5b50610135600480360381019061013091906122e3565b6104b1565b604051610142919061232b565b60405180910390f35b34801561015757600080fd5b50610172600480360381019061016d91906123a4565b610593565b60405161017f919061251e565b60405180910390f35b34801561019457600080fd5b5061019d610875565b6040516101aa91906125d9565b60405180910390f35b3480156101bf57600080fd5b506101da60048036038101906101d59190612627565b610907565b6040516101e79190612663565b60405180910390f35b3480156101fc57600080fd5b506102176004803603810190610212919061267e565b61094d565b005b34801561022557600080fd5b50610240600480360381019061023b91906123a4565b610a64565b60405161024d919061251e565b60405180910390f35b34801561026257600080fd5b5061027d600480360381019061027891906126be565b610d46565b005b34801561028b57600080fd5b506102a660048036038101906102a191906126be565b610da6565b005b3480156102b457600080fd5b506102cf60048036038101906102ca9190612627565b610dc6565b6040516102dc9190612663565b60405180910390f35b3480156102f157600080fd5b5061030c600480360381019061030791906123a4565b610e77565b6040516103199190612720565b60405180910390f35b34801561032e57600080fd5b50610337610f2e565b60405161034491906125d9565b60405180910390f35b34801561035957600080fd5b50610374600480360381019061036f9190612627565b610fc0565b6040516103819190612790565b60405180910390f35b6103a4600480360381019061039f91906128e0565b6110be565b6040516103b19190612720565b60405180910390f35b3480156103c657600080fd5b506103e160048036038101906103dc9190612968565b611100565b005b3480156103ef57600080fd5b5061040a60048036038101906104059190612a49565b611116565b005b34801561041857600080fd5b50610433600480360381019061042e9190612627565b611178565b60405161044091906125d9565b60405180910390f35b34801561045557600080fd5b50610470600480360381019061046b9190612acc565b61128a565b60405161047d919061232b565b60405180910390f35b34801561049257600080fd5b5061049b61131e565b6040516104a89190612720565b60405180910390f35b60007f80ac58cd000000000000000000000000000000000000000000000000000000007bffffffffffffffffffffffffffffffffffffffffffffffffffffffff1916827bffffffffffffffffffffffffffffffffffffffffffffffffffffffff1916148061057c57507f5b5e139f000000000000000000000000000000000000000000000000000000007bffffffffffffffffffffffffffffffffffffffffffffffffffffffff1916827bffffffffffffffffffffffffffffffffffffffffffffffffffffffff1916145b8061058c575061058b8261132f565b5b9050919050565b606060006105a16008611399565b905060008060005b8381101561064857600960006001836105c29190612b3b565b815260200190815260200160002060020160009054906101000a900473ffffffffffffffffffffffffffffffffffffffff1673ffffffffffffffffffffffffffffffffffffffff168673ffffffffffffffffffffffffffffffffffffffff160361063557828061063190612b91565b9350505b808061064090612b91565b9150506105a9565b5060008267ffffffffffffffff811115610665576106646127b5565b5b60405190808252806020026020018201604052801561069e57816020015b61068b61217e565b8152602001906001900390816106835790505b50905060005b8481101561086857600960006001836106bd9190612b3b565b815260200190815260200160002060020160009054906101000a900473ffffffffffffffffffffffffffffffffffffffff1673ffffffffffffffffffffffffffffffffffffffff168773ffffffffffffffffffffffffffffffffffffffff16036108555760006001826107309190612b3b565b9050600060096000838152602001908152602001600020905080604051806080016040529081600082015481526020016001820160009054906101000a900473ffffffffffffffffffffffffffffffffffffffff1673ffffffffffffffffffffffffffffffffffffffff1673ffffffffffffffffffffffffffffffffffffffff1681526020016002820160009054906101000a900473ffffffffffffffffffffffffffffffffffffffff1673ffffffffffffffffffffffffffffffffffffffff1673ffffffffffffffffffffffffffffffffffffffff1681526020016002820160149054906101000a900460ff16151515158152505084868151811061083957610838612bd9565b5b6020026020010181905250848061084f90612b91565b95505050505b808061086090612b91565b9150506106a4565b5080945050505050919050565b60606000805461088490612c37565b80601f01602080910402602001604051908101604052809291908181526020018280546108b090612c37565b80156108fd5780601f106108d2576101008083540402835291602001916108fd565b820191906000526020600020905b8154815290600101906020018083116108e057829003601f168201915b5050505050905090565b6000610912826113a7565b6004600083815260200190815260200160002060009054906101000a900473ffffffffffffffffffffffffffffffffffffffff169050919050565b600061095882610dc6565b90508073ffffffffffffffffffffffffffffffffffffffff168373ffffffffffffffffffffffffffffffffffffffff16036109c8576040517f08c379a00000000000000000000000000000000000000000000000000000000081526004016109bf90612cda565b60405180910390fd5b8073ffffffffffffffffffffffffffffffffffffffff166109e76113f2565b73ffffffffffffffffffffffffffffffffffffffff161480610a165750610a1581610a106113f2565b61128a565b5b610a55576040517f08c379a0000000000000000000000000000000000000000000000000000000008152600401610a4c90612d6c565b60405180910390fd5b610a5f83836113fa565b505050565b60606000610a726008611399565b905060008060005b83811015610b195760096000600183610a939190612b3b565b815260200190815260200160002060010160009054906101000a900473ffffffffffffffffffffffffffffffffffffffff1673ffffffffffffffffffffffffffffffffffffffff168673ffffffffffffffffffffffffffffffffffffffff1603610b06578280610b0290612b91565b9350505b8080610b1190612b91565b915050610a7a565b5060008267ffffffffffffffff811115610b3657610b356127b5565b5b604051908082528060200260200182016040528015610b6f57816020015b610b5c61217e565b815260200190600190039081610b545790505b50905060005b84811015610d395760096000600183610b8e9190612b3b565b815260200190815260200160002060010160009054906101000a900473ffffffffffffffffffffffffffffffffffffffff1673ffffffffffffffffffffffffffffffffffffffff168773ffffffffffffffffffffffffffffffffffffffff1603610d26576000600182610c019190612b3b565b9050600060096000838152602001908152602001600020905080604051806080016040529081600082015481526020016001820160009054906101000a900473ffffffffffffffffffffffffffffffffffffffff1673ffffffffffffffffffffffffffffffffffffffff1673ffffffffffffffffffffffffffffffffffffffff1681526020016002820160009054906101000a900473ffffffffffffffffffffffffffffffffffffffff1673ffffffffffffffffffffffffffffffffffffffff1673ffffffffffffffffffffffffffffffffffffffff1681526020016002820160149054906101000a900460ff161515151581525050848681518110610d0a57610d09612bd9565b5b60200260200101819052508480610d2090612b91565b95505050505b8080610d3190612b91565b915050610b75565b5080945050505050919050565b610d57610d516113f2565b826114b3565b610d96576040517f08c379a0000000000000000000000000000000000000000000000000000000008152600401610d8d90612dfe565b60405180910390fd5b610da1838383611548565b505050565b610dc183838360405180602001604052806000815250611116565b505050565b6000806002600084815260200190815260200160002060009054906101000a900473ffffffffffffffffffffffffffffffffffffffff169050600073ffffffffffffffffffffffffffffffffffffffff168173ffffffffffffffffffffffffffffffffffffffff1603610e6e576040517f08c379a0000000000000000000000000000000000000000000000000000000008152600401610e6590612e6a565b60405180910390fd5b80915050919050565b60008073ffffffffffffffffffffffffffffffffffffffff168273ffffffffffffffffffffffffffffffffffffffff1603610ee7576040517f08c379a0000000000000000000000000000000000000000000000000000000008152600401610ede90612efc565b60405180910390fd5b600360008373ffffffffffffffffffffffffffffffffffffffff1673ffffffffffffffffffffffffffffffffffffffff168152602001908152602001600020549050919050565b606060018054610f3d90612c37565b80601f0160208091040260200160405190810160405280929190818152602001828054610f6990612c37565b8015610fb65780601f10610f8b57610100808354040283529160200191610fb6565b820191906000526020600020905b815481529060010190602001808311610f9957829003601f168201915b5050505050905090565b610fc861217e565b60096000838152602001908152602001600020604051806080016040529081600082015481526020016001820160009054906101000a900473ffffffffffffffffffffffffffffffffffffffff1673ffffffffffffffffffffffffffffffffffffffff1673ffffffffffffffffffffffffffffffffffffffff1681526020016002820160009054906101000a900473ffffffffffffffffffffffffffffffffffffffff1673ffffffffffffffffffffffffffffffffffffffff1673ffffffffffffffffffffffffffffffffffffffff1681526020016002820160149054906101000a900460ff1615151515815250509050919050565b60006110ca60086117ae565b60006110d66008611399565b90506110e233826117c4565b6110ec81856117e2565b6110f68184611856565b8091505092915050565b61111261110b6113f2565b8383611983565b5050565b6111276111216113f2565b836114b3565b611166576040517f08c379a000000000000000000000000000000000000000000000000000000000815260040161115d90612dfe565b60405180910390fd5b61117284848484611aef565b50505050565b6060611183826113a7565b60006006600084815260200190815260200160002080546111a390612c37565b80601f01602080910402602001604051908101604052809291908181526020018280546111cf90612c37565b801561121c5780601f106111f15761010080835404028352916020019161121c565b820191906000526020600020905b8154815290600101906020018083116111ff57829003601f168201915b50505050509050600061122d611b4b565b90506000815103611242578192505050611285565b60008251111561127757808260405160200161125f929190612f58565b60405160208183030381529060405292505050611285565b61128084611b62565b925050505b919050565b6000600560008473ffffffffffffffffffffffffffffffffffffffff1673ffffffffffffffffffffffffffffffffffffffff16815260200190815260200160002060008373ffffffffffffffffffffffffffffffffffffffff1673ffffffffffffffffffffffffffffffffffffffff16815260200190815260200160002060009054906101000a900460ff16905092915050565b600061132a6008611399565b905090565b60007f01ffc9a7000000000000000000000000000000000000000000000000000000007bffffffffffffffffffffffffffffffffffffffffffffffffffffffff1916827bffffffffffffffffffffffffffffffffffffffffffffffffffffffff1916149050919050565b600081600001549050919050565b6113b081611bca565b6113ef576040517f08c379a00000000000000000000000000000000000000000000000000000000081526004016113e690612e6a565b60405180910390fd5b50565b600033905090565b816004600083815260200190815260200160002060006101000a81548173ffffffffffffffffffffffffffffffffffffffff021916908373ffffffffffffffffffffffffffffffffffffffff160217905550808273ffffffffffffffffffffffffffffffffffffffff1661146d83610dc6565b73ffffffffffffffffffffffffffffffffffffffff167f8c5be1e5ebec7d5bd14f71427d1e84f3dd0314c0f7b2291e5b200ac8c7c3b92560405160405180910390a45050565b6000806114bf83610dc6565b90508073ffffffffffffffffffffffffffffffffffffffff168473ffffffffffffffffffffffffffffffffffffffff1614806115015750611500818561128a565b5b8061153f57508373ffffffffffffffffffffffffffffffffffffffff1661152784610907565b73ffffffffffffffffffffffffffffffffffffffff16145b91505092915050565b8273ffffffffffffffffffffffffffffffffffffffff1661156882610dc6565b73ffffffffffffffffffffffffffffffffffffffff16146115be576040517f08c379a00000000000000000000000000000000000000000000000000000000081526004016115b590612fee565b60405180910390fd5b600073ffffffffffffffffffffffffffffffffffffffff168273ffffffffffffffffffffffffffffffffffffffff160361162d576040517f08c379a000000000000000000000000000000000000000000000000000000000815260040161162490613080565b60405180910390fd5b611638838383611c36565b6116436000826113fa565b6001600360008573ffffffffffffffffffffffffffffffffffffffff1673ffffffffffffffffffffffffffffffffffffffff168152602001908152602001600020600082825461169391906130a0565b925050819055506001600360008473ffffffffffffffffffffffffffffffffffffffff1673ffffffffffffffffffffffffffffffffffffffff16815260200190815260200160002060008282546116ea9190612b3b565b92505081905550816002600083815260200190815260200160002060006101000a81548173ffffffffffffffffffffffffffffffffffffffff021916908373ffffffffffffffffffffffffffffffffffffffff160217905550808273ffffffffffffffffffffffffffffffffffffffff168473ffffffffffffffffffffffffffffffffffffffff167fddf252ad1be2c89b69c2b068fc378daa952ba7f163c4a11628f55a4df523b3ef60405160405180910390a46117a9838383611c3b565b505050565b6001816000016000828254019250508190555050565b6117de828260405180602001604052806000815250611c40565b5050565b6117eb82611bca565b61182a576040517f08c379a000000000000000000000000000000000000000000000000000000000815260040161182190613146565b60405180910390fd5b806006600084815260200190815260200160002090805190602001906118519291906121d4565b505050565b60405180608001604052808381526020013373ffffffffffffffffffffffffffffffffffffffff1681526020018273ffffffffffffffffffffffffffffffffffffffff16815260200160001515815250600960008481526020019081526020016000206000820151816000015560208201518160010160006101000a81548173ffffffffffffffffffffffffffffffffffffffff021916908373ffffffffffffffffffffffffffffffffffffffff16021790555060408201518160020160006101000a81548173ffffffffffffffffffffffffffffffffffffffff021916908373ffffffffffffffffffffffffffffffffffffffff16021790555060608201518160020160146101000a81548160ff02191690831515021790555090505061197f338284611548565b5050565b8173ffffffffffffffffffffffffffffffffffffffff168373ffffffffffffffffffffffffffffffffffffffff16036119f1576040517f08c379a00000000000000000000000000000000000000000000000000000000081526004016119e8906131b2565b60405180910390fd5b80600560008573ffffffffffffffffffffffffffffffffffffffff1673ffffffffffffffffffffffffffffffffffffffff16815260200190815260200160002060008473ffffffffffffffffffffffffffffffffffffffff1673ffffffffffffffffffffffffffffffffffffffff16815260200190815260200160002060006101000a81548160ff0219169083151502179055508173ffffffffffffffffffffffffffffffffffffffff168373ffffffffffffffffffffffffffffffffffffffff167f17307eab39ab6107e8899845ad3d59bd9653f200f220920489ca2b5937696c3183604051611ae2919061232b565b60405180910390a3505050565b611afa848484611548565b611b0684848484611c9b565b611b45576040517f08c379a0000000000000000000000000000000000000000000000000000000008152600401611b3c90613244565b60405180910390fd5b50505050565b606060405180602001604052806000815250905090565b6060611b6d826113a7565b6000611b77611b4b565b90506000815111611b975760405180602001604052806000815250611bc2565b80611ba184611e22565b604051602001611bb2929190612f58565b6040516020818303038152906040525b915050919050565b60008073ffffffffffffffffffffffffffffffffffffffff166002600084815260200190815260200160002060009054906101000a900473ffffffffffffffffffffffffffffffffffffffff1673ffffffffffffffffffffffffffffffffffffffff1614159050919050565b505050565b505050565b611c4a8383611f82565b611c576000848484611c9b565b611c96576040517f08c379a0000000000000000000000000000000000000000000000000000000008152600401611c8d90613244565b60405180910390fd5b505050565b6000611cbc8473ffffffffffffffffffffffffffffffffffffffff1661215b565b15611e15578373ffffffffffffffffffffffffffffffffffffffff1663150b7a02611ce56113f2565b8786866040518563ffffffff1660e01b8152600401611d0794939291906132b9565b6020604051808303816000875af1925050508015611d4357506040513d601f19601f82011682018060405250810190611d40919061331a565b60015b611dc5573d8060008114611d73576040519150601f19603f3d011682016040523d82523d6000602084013e611d78565b606091505b506000815103611dbd576040517f08c379a0000000000000000000000000000000000000000000000000000000008152600401611db490613244565b60405180910390fd5b805181602001fd5b63150b7a0260e01b7bffffffffffffffffffffffffffffffffffffffffffffffffffffffff1916817bffffffffffffffffffffffffffffffffffffffffffffffffffffffff191614915050611e1a565b600190505b949350505050565b606060008203611e69576040518060400160405280600181526020017f30000000000000000000000000000000000000000000000000000000000000008152509050611f7d565b600082905060005b60008214611e9b578080611e8490612b91565b915050600a82611e949190613376565b9150611e71565b60008167ffffffffffffffff811115611eb757611eb66127b5565b5b6040519080825280601f01601f191660200182016040528015611ee95781602001600182028036833780820191505090505b5090505b60008514611f7657600182611f0291906130a0565b9150600a85611f1191906133a7565b6030611f1d9190612b3b565b60f81b818381518110611f3357611f32612bd9565b5b60200101907effffffffffffffffffffffffffffffffffffffffffffffffffffffffffffff1916908160001a905350600a85611f6f9190613376565b9450611eed565b8093505050505b919050565b600073ffffffffffffffffffffffffffffffffffffffff168273ffffffffffffffffffffffffffffffffffffffff1603611ff1576040517f08c379a0000000000000000000000000000000000000000000000000000000008152600401611fe890613424565b60405180910390fd5b611ffa81611bca565b1561203a576040517f08c379a000000000000000000000000000000000000000000000000000000000815260040161203190613490565b60405180910390fd5b61204660008383611c36565b6001600360008473ffffffffffffffffffffffffffffffffffffffff1673ffffffffffffffffffffffffffffffffffffffff16815260200190815260200160002060008282546120969190612b3b565b92505081905550816002600083815260200190815260200160002060006101000a81548173ffffffffffffffffffffffffffffffffffffffff021916908373ffffffffffffffffffffffffffffffffffffffff160217905550808273ffffffffffffffffffffffffffffffffffffffff16600073ffffffffffffffffffffffffffffffffffffffff167fddf252ad1be2c89b69c2b068fc378daa952ba7f163c4a11628f55a4df523b3ef60405160405180910390a461215760008383611c3b565b5050565b6000808273ffffffffffffffffffffffffffffffffffffffff163b119050919050565b604051806080016040528060008152602001600073ffffffffffffffffffffffffffffffffffffffff168152602001600073ffffffffffffffffffffffffffffffffffffffff1681526020016000151581525090565b8280546121e090612c37565b90600052602060002090601f0160209004810192826122025760008555612249565b82601f1061221b57805160ff1916838001178555612249565b82800160010185558215612249579182015b8281111561224857825182559160200191906001019061222d565b5b509050612256919061225a565b5090565b5b8082111561227357600081600090555060010161225b565b5090565b6000604051905090565b600080fd5b600080fd5b60007fffffffff0000000000000000000000000000000000000000000000000000000082169050919050565b6122c08161228b565b81146122cb57600080fd5b50565b6000813590506122dd816122b7565b92915050565b6000602082840312156122f9576122f8612281565b5b6000612307848285016122ce565b91505092915050565b60008115159050919050565b61232581612310565b82525050565b6000602082019050612340600083018461231c565b92915050565b600073ffffffffffffffffffffffffffffffffffffffff82169050919050565b600061237182612346565b9050919050565b61238181612366565b811461238c57600080fd5b50565b60008135905061239e81612378565b92915050565b6000602082840312156123ba576123b9612281565b5b60006123c88482850161238f565b91505092915050565b600081519050919050565b600082825260208201905092915050565b6000819050602082019050919050565b6000819050919050565b612410816123fd565b82525050565b600061242182612346565b9050919050565b61243181612416565b82525050565b61244081612310565b82525050565b60808201600082015161245c6000850182612407565b50602082015161246f6020850182612428565b5060408201516124826040850182612428565b5060608201516124956060850182612437565b50505050565b60006124a78383612446565b60808301905092915050565b6000602082019050919050565b60006124cb826123d1565b6124d581856123dc565b93506124e0836123ed565b8060005b838110156125115781516124f8888261249b565b9750612503836124b3565b9250506001810190506124e4565b5085935050505092915050565b6000602082019050818103600083015261253881846124c0565b905092915050565b600081519050919050565b600082825260208201905092915050565b60005b8381101561257a57808201518184015260208101905061255f565b83811115612589576000848401525b50505050565b6000601f19601f8301169050919050565b60006125ab82612540565b6125b5818561254b565b93506125c581856020860161255c565b6125ce8161258f565b840191505092915050565b600060208201905081810360008301526125f381846125a0565b905092915050565b612604816123fd565b811461260f57600080fd5b50565b600081359050612621816125fb565b92915050565b60006020828403121561263d5761263c612281565b5b600061264b84828501612612565b91505092915050565b61265d81612366565b82525050565b60006020820190506126786000830184612654565b92915050565b6000806040838503121561269557612694612281565b5b60006126a38582860161238f565b92505060206126b485828601612612565b9150509250929050565b6000806000606084860312156126d7576126d6612281565b5b60006126e58682870161238f565b93505060206126f68682870161238f565b925050604061270786828701612612565b9150509250925092565b61271a816123fd565b82525050565b60006020820190506127356000830184612711565b92915050565b6080820160008201516127516000850182612407565b5060208201516127646020850182612428565b5060408201516127776040850182612428565b50606082015161278a6060850182612437565b50505050565b60006080820190506127a5600083018461273b565b92915050565b600080fd5b600080fd5b7f4e487b7100000000000000000000000000000000000000000000000000000000600052604160045260246000fd5b6127ed8261258f565b810181811067ffffffffffffffff8211171561280c5761280b6127b5565b5b80604052505050565b600061281f612277565b905061282b82826127e4565b919050565b600067ffffffffffffffff82111561284b5761284a6127b5565b5b6128548261258f565b9050602081019050919050565b82818337600083830152505050565b600061288361287e84612830565b612815565b90508281526020810184848401111561289f5761289e6127b0565b5b6128aa848285612861565b509392505050565b600082601f8301126128c7576128c66127ab565b5b81356128d7848260208601612870565b91505092915050565b600080604083850312156128f7576128f6612281565b5b600083013567ffffffffffffffff81111561291557612914612286565b5b612921858286016128b2565b92505060206129328582860161238f565b9150509250929050565b61294581612310565b811461295057600080fd5b50565b6000813590506129628161293c565b92915050565b6000806040838503121561297f5761297e612281565b5b600061298d8582860161238f565b925050602061299e85828601612953565b9150509250929050565b600067ffffffffffffffff8211156129c3576129c26127b5565b5b6129cc8261258f565b9050602081019050919050565b60006129ec6129e7846129a8565b612815565b905082815260208101848484011115612a0857612a076127b0565b5b612a13848285612861565b509392505050565b600082601f830112612a3057612a2f6127ab565b5b8135612a408482602086016129d9565b91505092915050565b60008060008060808587031215612a6357612a62612281565b5b6000612a718782880161238f565b9450506020612a828782880161238f565b9350506040612a9387828801612612565b925050606085013567ffffffffffffffff811115612ab457612ab3612286565b5b612ac087828801612a1b565b91505092959194509250565b60008060408385031215612ae357612ae2612281565b5b6000612af18582860161238f565b9250506020612b028582860161238f565b9150509250929050565b7f4e487b7100000000000000000000000000000000000000000000000000000000600052601160045260246000fd5b6000612b46826123fd565b9150612b51836123fd565b9250827fffffffffffffffffffffffffffffffffffffffffffffffffffffffffffffffff03821115612b8657612b85612b0c565b5b828201905092915050565b6000612b9c826123fd565b91507fffffffffffffffffffffffffffffffffffffffffffffffffffffffffffffffff8203612bce57612bcd612b0c565b5b600182019050919050565b7f4e487b7100000000000000000000000000000000000000000000000000000000600052603260045260246000fd5b7f4e487b7100000000000000000000000000000000000000000000000000000000600052602260045260246000fd5b60006002820490506001821680612c4f57607f821691505b602082108103612c6257612c61612c08565b5b50919050565b7f4552433732313a20617070726f76616c20746f2063757272656e74206f776e6560008201527f7200000000000000000000000000000000000000000000000000000000000000602082015250565b6000612cc460218361254b565b9150612ccf82612c68565b604082019050919050565b60006020820190508181036000830152612cf381612cb7565b9050919050565b7f4552433732313a20617070726f76652063616c6c6572206973206e6f7420746f60008201527f6b656e206f776e6572206e6f7220617070726f76656420666f7220616c6c0000602082015250565b6000612d56603e8361254b565b9150612d6182612cfa565b604082019050919050565b60006020820190508181036000830152612d8581612d49565b9050919050565b7f4552433732313a2063616c6c6572206973206e6f7420746f6b656e206f776e6560008201527f72206e6f7220617070726f766564000000000000000000000000000000000000602082015250565b6000612de8602e8361254b565b9150612df382612d8c565b604082019050919050565b60006020820190508181036000830152612e1781612ddb565b9050919050565b7f4552433732313a20696e76616c696420746f6b656e2049440000000000000000600082015250565b6000612e5460188361254b565b9150612e5f82612e1e565b602082019050919050565b60006020820190508181036000830152612e8381612e47565b9050919050565b7f4552433732313a2061646472657373207a65726f206973206e6f74206120766160008201527f6c6964206f776e65720000000000000000000000000000000000000000000000602082015250565b6000612ee660298361254b565b9150612ef182612e8a565b604082019050919050565b60006020820190508181036000830152612f1581612ed9565b9050919050565b600081905092915050565b6000612f3282612540565b612f3c8185612f1c565b9350612f4c81856020860161255c565b80840191505092915050565b6000612f648285612f27565b9150612f708284612f27565b91508190509392505050565b7f4552433732313a207472616e736665722066726f6d20696e636f72726563742060008201527f6f776e6572000000000000000000000000000000000000000000000000000000602082015250565b6000612fd860258361254b565b9150612fe382612f7c565b604082019050919050565b6000602082019050818103600083015261300781612fcb565b9050919050565b7f4552433732313a207472616e7366657220746f20746865207a65726f2061646460008201527f7265737300000000000000000000000000000000000000000000000000000000602082015250565b600061306a60248361254b565b91506130758261300e565b604082019050919050565b600060208201905081810360008301526130998161305d565b9050919050565b60006130ab826123fd565b91506130b6836123fd565b9250828210156130c9576130c8612b0c565b5b828203905092915050565b7f45524337323155524953746f726167653a2055524920736574206f66206e6f6e60008201527f6578697374656e7420746f6b656e000000000000000000000000000000000000602082015250565b6000613130602e8361254b565b915061313b826130d4565b604082019050919050565b6000602082019050818103600083015261315f81613123565b9050919050565b7f4552433732313a20617070726f766520746f2063616c6c657200000000000000600082015250565b600061319c60198361254b565b91506131a782613166565b602082019050919050565b600060208201905081810360008301526131cb8161318f565b9050919050565b7f4552433732313a207472616e7366657220746f206e6f6e20455243373231526560008201527f63656976657220696d706c656d656e7465720000000000000000000000000000602082015250565b600061322e60328361254b565b9150613239826131d2565b604082019050919050565b6000602082019050818103600083015261325d81613221565b9050919050565b600081519050919050565b600082825260208201905092915050565b600061328b82613264565b613295818561326f565b93506132a581856020860161255c565b6132ae8161258f565b840191505092915050565b60006080820190506132ce6000830187612654565b6132db6020830186612654565b6132e86040830185612711565b81810360608301526132fa8184613280565b905095945050505050565b600081519050613314816122b7565b92915050565b6000602082840312156133305761332f612281565b5b600061333e84828501613305565b91505092915050565b7f4e487b7100000000000000000000000000000000000000000000000000000000600052601260045260246000fd5b6000613381826123fd565b915061338c836123fd565b92508261339c5761339b613347565b5b828204905092915050565b60006133b2826123fd565b91506133bd836123fd565b9250826133cd576133cc613347565b5b828206905092915050565b7f4552433732313a206d696e7420746f20746865207a65726f2061646472657373600082015250565b600061340e60208361254b565b9150613419826133d8565b602082019050919050565b6000602082019050818103600083015261343d81613401565b9050919050565b7f4552433732313a20746f6b656e20616c7265616479206d696e74656400000000600082015250565b600061347a601c8361254b565b915061348582613444565b602082019050919050565b600060208201905081810360008301526134a98161346d565b905091905056fea2646970667358221220aa95500c7a9b3dc5766035464886333a8838723631d9374fbe4b022d40e19b2b64736f6c634300080d0033",
  "immutableReferences": {},
  "source": "//SPDX-License-Identifier: MIT\r\npragma solidity ^0.8.13;\r\nimport \"@openzeppelin/contracts/utils/Counters.sol\";\r\nimport \"@openzeppelin/contracts/token/ERC721/extensions/ERC721URIStorage.sol\";\r\nimport \"@openzeppelin/contracts/token/ERC721/ERC721.sol\";\r\n\r\ncontract XRC721 is ERC721URIStorage{\r\n    address payable creator;\r\n    using Counters for Counters.Counter;\r\n    Counters.Counter private _tokenIds;\r\n\r\n    constructor() ERC721(\"Certificates\" , \"CER\")\r\n    {    }\r\n\r\n    struct ListedToken{\r\n        uint256 tokenId;\r\n        address payable creator;\r\n        address payable user;\r\n        bool ableToSell;\r\n    }\r\n    mapping(uint256 => ListedToken) idToListedToken;\r\n    \r\n    //for organisation side\r\n    //get information about certificate by entering tokenId\r\n    function getListedForTokenId(uint256 tokenId) public view returns(ListedToken memory)\r\n    {\r\n        return idToListedToken[tokenId];\r\n    }\r\n    // return current token id\r\n    function getCurrentToken() public view returns (uint256){\r\n        return _tokenIds.current();\r\n    }\r\n    //this function create the NFT when organisation click on button\r\n    function createToken(string memory tokenURI , address receiver) public payable returns (uint256)\r\n    {\r\n        _tokenIds.increment();\r\n        uint256 currentTokenId = _tokenIds.current();\r\n        _safeMint(msg.sender , currentTokenId);\r\n        _setTokenURI(currentTokenId , tokenURI);\r\n\r\n        createListedToken(currentTokenId , receiver);\r\n\r\n        return currentTokenId;\r\n    }\r\n    // set the information about certificate and transfer certificate to user\r\n    function createListedToken(uint256 tokenId , address receiver) private{\r\n        idToListedToken[tokenId] = ListedToken(\r\n            tokenId,\r\n            payable(msg.sender),\r\n            payable(receiver),\r\n            false\r\n        );\r\n\r\n        _transfer(msg.sender , receiver , tokenId);\r\n    }\r\n    // return array of all the certificate created by organisation\r\n    function getOrganisationCertificates(address org) public view returns(ListedToken[] memory)\r\n    {\r\n        uint totalItemCount = _tokenIds.current();\r\n        uint itemCount = 0;\r\n        uint currentIndex = 0;\r\n\r\n        for(uint i = 0;i<totalItemCount;i++)\r\n        {\r\n            if(org == idToListedToken[i+1].creator)\r\n            itemCount++;\r\n        }\r\n\r\n        ListedToken[] memory items = new ListedToken[](itemCount);\r\n        for(uint i = 0;i<totalItemCount;i++)\r\n        {\r\n            if(org == idToListedToken[i+1].creator)\r\n            {\r\n                uint currentId = i+1;\r\n                ListedToken storage currentItem = idToListedToken[currentId];\r\n                items[currentIndex] = currentItem;\r\n                currentIndex++;\r\n            }\r\n        }\r\n        return items;\r\n    }\r\n    //For user side\r\n    //Return array of all the certificates owned by User\r\n    function getUserCertificates(address user) public view returns(ListedToken[] memory)\r\n    {\r\n        uint totalItemCount = _tokenIds.current();\r\n        uint itemCount = 0;\r\n        uint currentIndex = 0;\r\n\r\n        for(uint i = 0;i<totalItemCount;i++)\r\n        {\r\n            if(user == idToListedToken[i+1].user)\r\n            itemCount++;\r\n        }\r\n\r\n        ListedToken[] memory items = new ListedToken[](itemCount);\r\n        for(uint i = 0;i<totalItemCount;i++)\r\n        {\r\n            if(user == idToListedToken[i+1].user)\r\n            {\r\n                uint currentId = i+1;\r\n                ListedToken storage currentItem = idToListedToken[currentId];\r\n                items[currentIndex] = currentItem;\r\n                currentIndex++;\r\n            }\r\n        }\r\n        return items;\r\n    }\r\n}",
  "sourcePath": "D:\\Hackathons\\Hackverse 2.0\\Truffle\\contracts\\XRC721.sol",
  "compiler": {
    "name": "solc",
    "version": "0.8.13+commit.abaa5c0e.Emscripten.clang"
  },
  "schemaVersion": "3.4.16",
  "updatedAt": "2023-10-28T07:39:31.858Z",
  "networkType": "ethereum",
  "devdoc": {
    "kind": "dev",
    "methods": {
      "approve(address,uint256)": {
        "details": "See {IERC721-approve}."
      },
      "balanceOf(address)": {
        "details": "See {IERC721-balanceOf}."
      },
      "getApproved(uint256)": {
        "details": "See {IERC721-getApproved}."
      },
      "isApprovedForAll(address,address)": {
        "details": "See {IERC721-isApprovedForAll}."
      },
      "name()": {
        "details": "See {IERC721Metadata-name}."
      },
      "ownerOf(uint256)": {
        "details": "See {IERC721-ownerOf}."
      },
      "safeTransferFrom(address,address,uint256)": {
        "details": "See {IERC721-safeTransferFrom}."
      },
      "safeTransferFrom(address,address,uint256,bytes)": {
        "details": "See {IERC721-safeTransferFrom}."
      },
      "setApprovalForAll(address,bool)": {
        "details": "See {IERC721-setApprovalForAll}."
      },
      "supportsInterface(bytes4)": {
        "details": "See {IERC165-supportsInterface}."
      },
      "symbol()": {
        "details": "See {IERC721Metadata-symbol}."
      },
      "tokenURI(uint256)": {
        "details": "See {IERC721Metadata-tokenURI}."
      },
      "transferFrom(address,address,uint256)": {
        "details": "See {IERC721-transferFrom}."
      }
    },
    "version": 1
  },
  "userdoc": {
    "kind": "user",
    "methods": {},
    "version": 1
  }
}