{
  "contractName": "XRC721",
  "address": "0xcBE50EeeB091dBe8DE526613B277F46EFaf09542",
  "abi": [
    {
      "inputs": [],
      "stateMutability": "nonpayable",
      "type": "constructor"
    },
    {
      "anonymous": false,
      "inputs": [
        {
          "indexed": true,
          "internalType": "address",
          "name": "owner",
          "type": "address"
        },
        {
          "indexed": true,
          "internalType": "address",
          "name": "approved",
          "type": "address"
        },
        {
          "indexed": true,
          "internalType": "uint256",
          "name": "tokenId",
          "type": "uint256"
        }
      ],
      "name": "Approval",
      "type": "event"
    },
    {
      "anonymous": false,
      "inputs": [
        {
          "indexed": true,
          "internalType": "address",
          "name": "owner",
          "type": "address"
        },
        {
          "indexed": true,
          "internalType": "address",
          "name": "operator",
          "type": "address"
        },
        {
          "indexed": false,
          "internalType": "bool",
          "name": "approved",
          "type": "bool"
        }
      ],
      "name": "ApprovalForAll",
      "type": "event"
    },
    {
      "anonymous": false,
      "inputs": [
        {
          "indexed": false,
          "internalType": "string",
          "name": "companyName",
          "type": "string"
        },
        {
          "indexed": false,
          "internalType": "string",
          "name": "location",
          "type": "string"
        },
        {
          "indexed": false,
          "internalType": "uint256",
          "name": "registrationNo",
          "type": "uint256"
        },
        {
          "indexed": false,
          "internalType": "uint256",
          "name": "pinCode",
          "type": "uint256"
        }
      ],
      "name": "OrganizationRegistered",
      "type": "event"
    },
    {
      "anonymous": false,
      "inputs": [
        {
          "indexed": true,
          "internalType": "address",
          "name": "from",
          "type": "address"
        },
        {
          "indexed": true,
          "internalType": "address",
          "name": "to",
          "type": "address"
        },
        {
          "indexed": true,
          "internalType": "uint256",
          "name": "tokenId",
          "type": "uint256"
        }
      ],
      "name": "Transfer",
      "type": "event"
    },
    {
      "inputs": [
        {
          "internalType": "address",
          "name": "to",
          "type": "address"
        },
        {
          "internalType": "uint256",
          "name": "tokenId",
          "type": "uint256"
        }
      ],
      "name": "approve",
      "outputs": [],
      "stateMutability": "nonpayable",
      "type": "function"
    },
    {
      "inputs": [
        {
          "internalType": "address",
          "name": "owner",
          "type": "address"
        }
      ],
      "name": "balanceOf",
      "outputs": [
        {
          "internalType": "uint256",
          "name": "",
          "type": "uint256"
        }
      ],
      "stateMutability": "view",
      "type": "function",
      "constant": true
    },
    {
      "inputs": [
        {
          "internalType": "uint256",
          "name": "tokenId",
          "type": "uint256"
        }
      ],
      "name": "getApproved",
      "outputs": [
        {
          "internalType": "address",
          "name": "",
          "type": "address"
        }
      ],
      "stateMutability": "view",
      "type": "function",
      "constant": true
    },
    {
      "inputs": [
        {
          "internalType": "address",
          "name": "owner",
          "type": "address"
        },
        {
          "internalType": "address",
          "name": "operator",
          "type": "address"
        }
      ],
      "name": "isApprovedForAll",
      "outputs": [
        {
          "internalType": "bool",
          "name": "",
          "type": "bool"
        }
      ],
      "stateMutability": "view",
      "type": "function",
      "constant": true
    },
    {
      "inputs": [],
      "name": "name",
      "outputs": [
        {
          "internalType": "string",
          "name": "",
          "type": "string"
        }
      ],
      "stateMutability": "view",
      "type": "function",
      "constant": true
    },
    {
      "inputs": [
        {
          "internalType": "uint256",
          "name": "tokenId",
          "type": "uint256"
        }
      ],
      "name": "ownerOf",
      "outputs": [
        {
          "internalType": "address",
          "name": "",
          "type": "address"
        }
      ],
      "stateMutability": "view",
      "type": "function",
      "constant": true
    },
    {
      "inputs": [
        {
          "internalType": "address",
          "name": "from",
          "type": "address"
        },
        {
          "internalType": "address",
          "name": "to",
          "type": "address"
        },
        {
          "internalType": "uint256",
          "name": "tokenId",
          "type": "uint256"
        }
      ],
      "name": "safeTransferFrom",
      "outputs": [],
      "stateMutability": "nonpayable",
      "type": "function"
    },
    {
      "inputs": [
        {
          "internalType": "address",
          "name": "from",
          "type": "address"
        },
        {
          "internalType": "address",
          "name": "to",
          "type": "address"
        },
        {
          "internalType": "uint256",
          "name": "tokenId",
          "type": "uint256"
        },
        {
          "internalType": "bytes",
          "name": "data",
          "type": "bytes"
        }
      ],
      "name": "safeTransferFrom",
      "outputs": [],
      "stateMutability": "nonpayable",
      "type": "function"
    },
    {
      "inputs": [
        {
          "internalType": "address",
          "name": "operator",
          "type": "address"
        },
        {
          "internalType": "bool",
          "name": "approved",
          "type": "bool"
        }
      ],
      "name": "setApprovalForAll",
      "outputs": [],
      "stateMutability": "nonpayable",
      "type": "function"
    },
    {
      "inputs": [
        {
          "internalType": "bytes4",
          "name": "interfaceId",
          "type": "bytes4"
        }
      ],
      "name": "supportsInterface",
      "outputs": [
        {
          "internalType": "bool",
          "name": "",
          "type": "bool"
        }
      ],
      "stateMutability": "view",
      "type": "function",
      "constant": true
    },
    {
      "inputs": [],
      "name": "symbol",
      "outputs": [
        {
          "internalType": "string",
          "name": "",
          "type": "string"
        }
      ],
      "stateMutability": "view",
      "type": "function",
      "constant": true
    },
    {
      "inputs": [
        {
          "internalType": "uint256",
          "name": "tokenId",
          "type": "uint256"
        }
      ],
      "name": "tokenURI",
      "outputs": [
        {
          "internalType": "string",
          "name": "",
          "type": "string"
        }
      ],
      "stateMutability": "view",
      "type": "function",
      "constant": true
    },
    {
      "inputs": [
        {
          "internalType": "address",
          "name": "from",
          "type": "address"
        },
        {
          "internalType": "address",
          "name": "to",
          "type": "address"
        },
        {
          "internalType": "uint256",
          "name": "tokenId",
          "type": "uint256"
        }
      ],
      "name": "transferFrom",
      "outputs": [],
      "stateMutability": "nonpayable",
      "type": "function"
    },
    {
      "inputs": [
        {
          "internalType": "string",
          "name": "_companyName",
          "type": "string"
        },
        {
          "internalType": "string",
          "name": "_location",
          "type": "string"
        },
        {
          "internalType": "uint256",
          "name": "_registrationNo",
          "type": "uint256"
        },
        {
          "internalType": "uint256",
          "name": "_pinCode",
          "type": "uint256"
        }
      ],
      "name": "registerOrganization",
      "outputs": [],
      "stateMutability": "nonpayable",
      "type": "function"
    },
    {
      "inputs": [],
      "name": "isOrganizationVerified",
      "outputs": [
        {
          "internalType": "bool",
          "name": "",
          "type": "bool"
        }
      ],
      "stateMutability": "view",
      "type": "function",
      "constant": true
    },
    {
      "inputs": [
        {
          "internalType": "uint256",
          "name": "tokenId",
          "type": "uint256"
        }
      ],
      "name": "getListedForTokenId",
      "outputs": [
        {
          "components": [
            {
              "internalType": "uint256",
              "name": "tokenId",
              "type": "uint256"
            },
            {
              "internalType": "address payable",
              "name": "creator",
              "type": "address"
            },
            {
              "internalType": "address payable",
              "name": "user",
              "type": "address"
            },
            {
              "internalType": "bool",
              "name": "ableToSell",
              "type": "bool"
            }
          ],
          "internalType": "struct XRC721.ListedToken",
          "name": "",
          "type": "tuple"
        }
      ],
      "stateMutability": "view",
      "type": "function",
      "constant": true
    },
    {
      "inputs": [],
      "name": "getCurrentToken",
      "outputs": [
        {
          "internalType": "uint256",
          "name": "",
          "type": "uint256"
        }
      ],
      "stateMutability": "view",
      "type": "function",
      "constant": true
    },
    {
      "inputs": [
        {
          "internalType": "string",
          "name": "tokenURI",
          "type": "string"
        },
        {
          "internalType": "address",
          "name": "receiver",
          "type": "address"
        }
      ],
      "name": "createToken",
      "outputs": [
        {
          "internalType": "uint256",
          "name": "",
          "type": "uint256"
        }
      ],
      "stateMutability": "payable",
      "type": "function",
      "payable": true
    },
    {
      "inputs": [
        {
          "internalType": "address",
          "name": "org",
          "type": "address"
        }
      ],
      "name": "getOrganisationCertificates",
      "outputs": [
        {
          "components": [
            {
              "internalType": "uint256",
              "name": "tokenId",
              "type": "uint256"
            },
            {
              "internalType": "address payable",
              "name": "creator",
              "type": "address"
            },
            {
              "internalType": "address payable",
              "name": "user",
              "type": "address"
            },
            {
              "internalType": "bool",
              "name": "ableToSell",
              "type": "bool"
            }
          ],
          "internalType": "struct XRC721.ListedToken[]",
          "name": "",
          "type": "tuple[]"
        }
      ],
      "stateMutability": "view",
      "type": "function",
      "constant": true
    },
    {
      "inputs": [
        {
          "internalType": "address",
          "name": "user",
          "type": "address"
        }
      ],
      "name": "getUserCertificates",
      "outputs": [
        {
          "components": [
            {
              "internalType": "uint256",
              "name": "tokenId",
              "type": "uint256"
            },
            {
              "internalType": "address payable",
              "name": "creator",
              "type": "address"
            },
            {
              "internalType": "address payable",
              "name": "user",
              "type": "address"
            },
            {
              "internalType": "bool",
              "name": "ableToSell",
              "type": "bool"
            }
          ],
          "internalType": "struct XRC721.ListedToken[]",
          "name": "",
          "type": "tuple[]"
        }
      ],
      "stateMutability": "view",
      "type": "function",
      "constant": true
    }
  ],
  "bytecode": "0x60806040523480156200001157600080fd5b506040518060400160405280600c81526020017f43657274696669636174657300000000000000000000000000000000000000008152506040518060400160405280600381526020017f4345520000000000000000000000000000000000000000000000000000000000815250816000908051906020019062000096929190620000b8565b508060019080519060200190620000af929190620000b8565b505050620001cc565b828054620000c69062000197565b90600052602060002090601f016020900481019282620000ea576000855562000136565b82601f106200010557805160ff191683800117855562000136565b8280016001018555821562000136579182015b828111156200013557825182559160200191906001019062000118565b5b50905062000145919062000149565b5090565b5b80821115620001645760008160009055506001016200014a565b5090565b7f4e487b7100000000000000000000000000000000000000000000000000000000600052602260045260246000fd5b60006002820490506001821680620001b057607f821691505b602082108103620001c657620001c562000168565b5b50919050565b6138d880620001dc6000396000f3fe60806040526004361061011f5760003560e01c806370a08231116100a0578063b88d4fde11610064578063b88d4fde14610424578063bbd0de3d1461044d578063c87b56dd14610476578063e985e9c5146104b3578063ef2d1746146104f05761011f565b806370a082311461032657806395d89b411461036357806398c3df161461038e578063a2119377146103cb578063a22cb465146103fb5761011f565b80630f3629cf116100e75780630f3629cf1461022f57806323b872dd1461026c5780633dc72b701461029557806342842e0e146102c05780636352211e146102e95761011f565b806301ffc9a7146101245780630385bd181461016157806306fdde031461019e578063081812fc146101c9578063095ea7b314610206575b600080fd5b34801561013057600080fd5b5061014b60048036038101906101469190612551565b61051b565b6040516101589190612599565b60405180910390f35b34801561016d57600080fd5b5061018860048036038101906101839190612612565b6105fd565b604051610195919061278c565b60405180910390f35b3480156101aa57600080fd5b506101b36108df565b6040516101c09190612847565b60405180910390f35b3480156101d557600080fd5b506101f060048036038101906101eb9190612895565b610971565b6040516101fd91906128d1565b60405180910390f35b34801561021257600080fd5b5061022d600480360381019061022891906128ec565b6109b7565b005b34801561023b57600080fd5b5061025660048036038101906102519190612612565b610ace565b604051610263919061278c565b60405180910390f35b34801561027857600080fd5b50610293600480360381019061028e919061292c565b610db0565b005b3480156102a157600080fd5b506102aa610e10565b6040516102b79190612599565b60405180910390f35b3480156102cc57600080fd5b506102e760048036038101906102e2919061292c565b610e67565b005b3480156102f557600080fd5b50610310600480360381019061030b9190612895565b610e87565b60405161031d91906128d1565b60405180910390f35b34801561033257600080fd5b5061034d60048036038101906103489190612612565b610f38565b60405161035a919061298e565b60405180910390f35b34801561036f57600080fd5b50610378610fef565b6040516103859190612847565b60405180910390f35b34801561039a57600080fd5b506103b560048036038101906103b09190612895565b611081565b6040516103c291906129fe565b60405180910390f35b6103e560048036038101906103e09190612b4e565b61117f565b6040516103f2919061298e565b60405180910390f35b34801561040757600080fd5b50610422600480360381019061041d9190612bd6565b6111c1565b005b34801561043057600080fd5b5061044b60048036038101906104469190612cb7565b6111d7565b005b34801561045957600080fd5b50610474600480360381019061046f9190612d3a565b611239565b005b34801561048257600080fd5b5061049d60048036038101906104989190612895565b6113e6565b6040516104aa9190612847565b60405180910390f35b3480156104bf57600080fd5b506104da60048036038101906104d59190612dd9565b6114f8565b6040516104e79190612599565b60405180910390f35b3480156104fc57600080fd5b5061050561158c565b604051610512919061298e565b60405180910390f35b60007f80ac58cd000000000000000000000000000000000000000000000000000000007bffffffffffffffffffffffffffffffffffffffffffffffffffffffff1916827bffffffffffffffffffffffffffffffffffffffffffffffffffffffff191614806105e657507f5b5e139f000000000000000000000000000000000000000000000000000000007bffffffffffffffffffffffffffffffffffffffffffffffffffffffff1916827bffffffffffffffffffffffffffffffffffffffffffffffffffffffff1916145b806105f657506105f58261159d565b5b9050919050565b6060600061060b6008611607565b905060008060005b838110156106b257600a600060018361062c9190612e48565b815260200190815260200160002060020160009054906101000a900473ffffffffffffffffffffffffffffffffffffffff1673ffffffffffffffffffffffffffffffffffffffff168673ffffffffffffffffffffffffffffffffffffffff160361069f57828061069b90612e9e565b9350505b80806106aa90612e9e565b915050610613565b5060008267ffffffffffffffff8111156106cf576106ce612a23565b5b60405190808252806020026020018201604052801561070857816020015b6106f56123ec565b8152602001906001900390816106ed5790505b50905060005b848110156108d257600a60006001836107279190612e48565b815260200190815260200160002060020160009054906101000a900473ffffffffffffffffffffffffffffffffffffffff1673ffffffffffffffffffffffffffffffffffffffff168773ffffffffffffffffffffffffffffffffffffffff16036108bf57600060018261079a9190612e48565b90506000600a6000838152602001908152602001600020905080604051806080016040529081600082015481526020016001820160009054906101000a900473ffffffffffffffffffffffffffffffffffffffff1673ffffffffffffffffffffffffffffffffffffffff1673ffffffffffffffffffffffffffffffffffffffff1681526020016002820160009054906101000a900473ffffffffffffffffffffffffffffffffffffffff1673ffffffffffffffffffffffffffffffffffffffff1673ffffffffffffffffffffffffffffffffffffffff1681526020016002820160149054906101000a900460ff1615151515815250508486815181106108a3576108a2612ee6565b5b602002602001018190525084806108b990612e9e565b95505050505b80806108ca90612e9e565b91505061070e565b5080945050505050919050565b6060600080546108ee90612f44565b80601f016020809104026020016040519081016040528092919081815260200182805461091a90612f44565b80156109675780601f1061093c57610100808354040283529160200191610967565b820191906000526020600020905b81548152906001019060200180831161094a57829003601f168201915b5050505050905090565b600061097c82611615565b6004600083815260200190815260200160002060009054906101000a900473ffffffffffffffffffffffffffffffffffffffff169050919050565b60006109c282610e87565b90508073ffffffffffffffffffffffffffffffffffffffff168373ffffffffffffffffffffffffffffffffffffffff1603610a32576040517f08c379a0000000000000000000000000000000000000000000000000000000008152600401610a2990612fe7565b60405180910390fd5b8073ffffffffffffffffffffffffffffffffffffffff16610a51611660565b73ffffffffffffffffffffffffffffffffffffffff161480610a805750610a7f81610a7a611660565b6114f8565b5b610abf576040517f08c379a0000000000000000000000000000000000000000000000000000000008152600401610ab690613079565b60405180910390fd5b610ac98383611668565b505050565b60606000610adc6008611607565b905060008060005b83811015610b8357600a6000600183610afd9190612e48565b815260200190815260200160002060010160009054906101000a900473ffffffffffffffffffffffffffffffffffffffff1673ffffffffffffffffffffffffffffffffffffffff168673ffffffffffffffffffffffffffffffffffffffff1603610b70578280610b6c90612e9e565b9350505b8080610b7b90612e9e565b915050610ae4565b5060008267ffffffffffffffff811115610ba057610b9f612a23565b5b604051908082528060200260200182016040528015610bd957816020015b610bc66123ec565b815260200190600190039081610bbe5790505b50905060005b84811015610da357600a6000600183610bf89190612e48565b815260200190815260200160002060010160009054906101000a900473ffffffffffffffffffffffffffffffffffffffff1673ffffffffffffffffffffffffffffffffffffffff168773ffffffffffffffffffffffffffffffffffffffff1603610d90576000600182610c6b9190612e48565b90506000600a6000838152602001908152602001600020905080604051806080016040529081600082015481526020016001820160009054906101000a900473ffffffffffffffffffffffffffffffffffffffff1673ffffffffffffffffffffffffffffffffffffffff1673ffffffffffffffffffffffffffffffffffffffff1681526020016002820160009054906101000a900473ffffffffffffffffffffffffffffffffffffffff1673ffffffffffffffffffffffffffffffffffffffff1673ffffffffffffffffffffffffffffffffffffffff1681526020016002820160149054906101000a900460ff161515151581525050848681518110610d7457610d73612ee6565b5b60200260200101819052508480610d8a90612e9e565b95505050505b8080610d9b90612e9e565b915050610bdf565b5080945050505050919050565b610dc1610dbb611660565b82611721565b610e00576040517f08c379a0000000000000000000000000000000000000000000000000000000008152600401610df79061310b565b60405180910390fd5b610e0b8383836117b6565b505050565b6000600960003373ffffffffffffffffffffffffffffffffffffffff1673ffffffffffffffffffffffffffffffffffffffff16815260200190815260200160002060040160009054906101000a900460ff16905090565b610e82838383604051806020016040528060008152506111d7565b505050565b6000806002600084815260200190815260200160002060009054906101000a900473ffffffffffffffffffffffffffffffffffffffff169050600073ffffffffffffffffffffffffffffffffffffffff168173ffffffffffffffffffffffffffffffffffffffff1603610f2f576040517f08c379a0000000000000000000000000000000000000000000000000000000008152600401610f2690613177565b60405180910390fd5b80915050919050565b60008073ffffffffffffffffffffffffffffffffffffffff168273ffffffffffffffffffffffffffffffffffffffff1603610fa8576040517f08c379a0000000000000000000000000000000000000000000000000000000008152600401610f9f90613209565b60405180910390fd5b600360008373ffffffffffffffffffffffffffffffffffffffff1673ffffffffffffffffffffffffffffffffffffffff168152602001908152602001600020549050919050565b606060018054610ffe90612f44565b80601f016020809104026020016040519081016040528092919081815260200182805461102a90612f44565b80156110775780601f1061104c57610100808354040283529160200191611077565b820191906000526020600020905b81548152906001019060200180831161105a57829003601f168201915b5050505050905090565b6110896123ec565b600a6000838152602001908152602001600020604051806080016040529081600082015481526020016001820160009054906101000a900473ffffffffffffffffffffffffffffffffffffffff1673ffffffffffffffffffffffffffffffffffffffff1673ffffffffffffffffffffffffffffffffffffffff1681526020016002820160009054906101000a900473ffffffffffffffffffffffffffffffffffffffff1673ffffffffffffffffffffffffffffffffffffffff1673ffffffffffffffffffffffffffffffffffffffff1681526020016002820160149054906101000a900460ff1615151515815250509050919050565b600061118b6008611a1c565b60006111976008611607565b90506111a33382611a32565b6111ad8185611a50565b6111b78184611ac4565b8091505092915050565b6111d36111cc611660565b8383611bf1565b5050565b6111e86111e2611660565b83611721565b611227576040517f08c379a000000000000000000000000000000000000000000000000000000000815260040161121e9061310b565b60405180910390fd5b61123384848484611d5d565b50505050565b600960003373ffffffffffffffffffffffffffffffffffffffff1673ffffffffffffffffffffffffffffffffffffffff16815260200190815260200160002060040160009054906101000a900460ff16156112c9576040517f08c379a00000000000000000000000000000000000000000000000000000000081526004016112c09061329b565b60405180910390fd5b6040518060a0016040528085815260200184815260200183815260200182815260200160011515815250600960003373ffffffffffffffffffffffffffffffffffffffff1673ffffffffffffffffffffffffffffffffffffffff168152602001908152602001600020600082015181600001908051906020019061134e929190612442565b50602082015181600101908051906020019061136b929190612442565b50604082015181600201556060820151816003015560808201518160040160006101000a81548160ff0219169083151502179055509050507f5dd5d9b47c0cdf3364647a95b71ef5dd052644f836f49b3138d76b8ee778f94a848484846040516113d894939291906132bb565b60405180910390a150505050565b60606113f182611615565b600060066000848152602001908152602001600020805461141190612f44565b80601f016020809104026020016040519081016040528092919081815260200182805461143d90612f44565b801561148a5780601f1061145f5761010080835404028352916020019161148a565b820191906000526020600020905b81548152906001019060200180831161146d57829003601f168201915b50505050509050600061149b611db9565b905060008151036114b05781925050506114f3565b6000825111156114e55780826040516020016114cd92919061334a565b604051602081830303815290604052925050506114f3565b6114ee84611dd0565b925050505b919050565b6000600560008473ffffffffffffffffffffffffffffffffffffffff1673ffffffffffffffffffffffffffffffffffffffff16815260200190815260200160002060008373ffffffffffffffffffffffffffffffffffffffff1673ffffffffffffffffffffffffffffffffffffffff16815260200190815260200160002060009054906101000a900460ff16905092915050565b60006115986008611607565b905090565b60007f01ffc9a7000000000000000000000000000000000000000000000000000000007bffffffffffffffffffffffffffffffffffffffffffffffffffffffff1916827bffffffffffffffffffffffffffffffffffffffffffffffffffffffff1916149050919050565b600081600001549050919050565b61161e81611e38565b61165d576040517f08c379a000000000000000000000000000000000000000000000000000000000815260040161165490613177565b60405180910390fd5b50565b600033905090565b816004600083815260200190815260200160002060006101000a81548173ffffffffffffffffffffffffffffffffffffffff021916908373ffffffffffffffffffffffffffffffffffffffff160217905550808273ffffffffffffffffffffffffffffffffffffffff166116db83610e87565b73ffffffffffffffffffffffffffffffffffffffff167f8c5be1e5ebec7d5bd14f71427d1e84f3dd0314c0f7b2291e5b200ac8c7c3b92560405160405180910390a45050565b60008061172d83610e87565b90508073ffffffffffffffffffffffffffffffffffffffff168473ffffffffffffffffffffffffffffffffffffffff16148061176f575061176e81856114f8565b5b806117ad57508373ffffffffffffffffffffffffffffffffffffffff1661179584610971565b73ffffffffffffffffffffffffffffffffffffffff16145b91505092915050565b8273ffffffffffffffffffffffffffffffffffffffff166117d682610e87565b73ffffffffffffffffffffffffffffffffffffffff161461182c576040517f08c379a0000000000000000000000000000000000000000000000000000000008152600401611823906133e0565b60405180910390fd5b600073ffffffffffffffffffffffffffffffffffffffff168273ffffffffffffffffffffffffffffffffffffffff160361189b576040517f08c379a000000000000000000000000000000000000000000000000000000000815260040161189290613472565b60405180910390fd5b6118a6838383611ea4565b6118b1600082611668565b6001600360008573ffffffffffffffffffffffffffffffffffffffff1673ffffffffffffffffffffffffffffffffffffffff16815260200190815260200160002060008282546119019190613492565b925050819055506001600360008473ffffffffffffffffffffffffffffffffffffffff1673ffffffffffffffffffffffffffffffffffffffff16815260200190815260200160002060008282546119589190612e48565b92505081905550816002600083815260200190815260200160002060006101000a81548173ffffffffffffffffffffffffffffffffffffffff021916908373ffffffffffffffffffffffffffffffffffffffff160217905550808273ffffffffffffffffffffffffffffffffffffffff168473ffffffffffffffffffffffffffffffffffffffff167fddf252ad1be2c89b69c2b068fc378daa952ba7f163c4a11628f55a4df523b3ef60405160405180910390a4611a17838383611ea9565b505050565b6001816000016000828254019250508190555050565b611a4c828260405180602001604052806000815250611eae565b5050565b611a5982611e38565b611a98576040517f08c379a0000000000000000000000000000000000000000000000000000000008152600401611a8f90613538565b60405180910390fd5b80600660008481526020019081526020016000209080519060200190611abf929190612442565b505050565b60405180608001604052808381526020013373ffffffffffffffffffffffffffffffffffffffff1681526020018273ffffffffffffffffffffffffffffffffffffffff16815260200160001515815250600a60008481526020019081526020016000206000820151816000015560208201518160010160006101000a81548173ffffffffffffffffffffffffffffffffffffffff021916908373ffffffffffffffffffffffffffffffffffffffff16021790555060408201518160020160006101000a81548173ffffffffffffffffffffffffffffffffffffffff021916908373ffffffffffffffffffffffffffffffffffffffff16021790555060608201518160020160146101000a81548160ff021916908315150217905550905050611bed3382846117b6565b5050565b8173ffffffffffffffffffffffffffffffffffffffff168373ffffffffffffffffffffffffffffffffffffffff1603611c5f576040517f08c379a0000000000000000000000000000000000000000000000000000000008152600401611c56906135a4565b60405180910390fd5b80600560008573ffffffffffffffffffffffffffffffffffffffff1673ffffffffffffffffffffffffffffffffffffffff16815260200190815260200160002060008473ffffffffffffffffffffffffffffffffffffffff1673ffffffffffffffffffffffffffffffffffffffff16815260200190815260200160002060006101000a81548160ff0219169083151502179055508173ffffffffffffffffffffffffffffffffffffffff168373ffffffffffffffffffffffffffffffffffffffff167f17307eab39ab6107e8899845ad3d59bd9653f200f220920489ca2b5937696c3183604051611d509190612599565b60405180910390a3505050565b611d688484846117b6565b611d7484848484611f09565b611db3576040517f08c379a0000000000000000000000000000000000000000000000000000000008152600401611daa90613636565b60405180910390fd5b50505050565b606060405180602001604052806000815250905090565b6060611ddb82611615565b6000611de5611db9565b90506000815111611e055760405180602001604052806000815250611e30565b80611e0f84612090565b604051602001611e2092919061334a565b6040516020818303038152906040525b915050919050565b60008073ffffffffffffffffffffffffffffffffffffffff166002600084815260200190815260200160002060009054906101000a900473ffffffffffffffffffffffffffffffffffffffff1673ffffffffffffffffffffffffffffffffffffffff1614159050919050565b505050565b505050565b611eb883836121f0565b611ec56000848484611f09565b611f04576040517f08c379a0000000000000000000000000000000000000000000000000000000008152600401611efb90613636565b60405180910390fd5b505050565b6000611f2a8473ffffffffffffffffffffffffffffffffffffffff166123c9565b15612083578373ffffffffffffffffffffffffffffffffffffffff1663150b7a02611f53611660565b8786866040518563ffffffff1660e01b8152600401611f7594939291906136ab565b6020604051808303816000875af1925050508015611fb157506040513d601f19601f82011682018060405250810190611fae919061370c565b60015b612033573d8060008114611fe1576040519150601f19603f3d011682016040523d82523d6000602084013e611fe6565b606091505b50600081510361202b576040517f08c379a000000000000000000000000000000000000000000000000000000000815260040161202290613636565b60405180910390fd5b805181602001fd5b63150b7a0260e01b7bffffffffffffffffffffffffffffffffffffffffffffffffffffffff1916817bffffffffffffffffffffffffffffffffffffffffffffffffffffffff191614915050612088565b600190505b949350505050565b6060600082036120d7576040518060400160405280600181526020017f300000000000000000000000000000000000000000000000000000000000000081525090506121eb565b600082905060005b600082146121095780806120f290612e9e565b915050600a826121029190613768565b91506120df565b60008167ffffffffffffffff81111561212557612124612a23565b5b6040519080825280601f01601f1916602001820160405280156121575781602001600182028036833780820191505090505b5090505b600085146121e4576001826121709190613492565b9150600a8561217f9190613799565b603061218b9190612e48565b60f81b8183815181106121a1576121a0612ee6565b5b60200101907effffffffffffffffffffffffffffffffffffffffffffffffffffffffffffff1916908160001a905350600a856121dd9190613768565b945061215b565b8093505050505b919050565b600073ffffffffffffffffffffffffffffffffffffffff168273ffffffffffffffffffffffffffffffffffffffff160361225f576040517f08c379a000000000000000000000000000000000000000000000000000000000815260040161225690613816565b60405180910390fd5b61226881611e38565b156122a8576040517f08c379a000000000000000000000000000000000000000000000000000000000815260040161229f90613882565b60405180910390fd5b6122b460008383611ea4565b6001600360008473ffffffffffffffffffffffffffffffffffffffff1673ffffffffffffffffffffffffffffffffffffffff16815260200190815260200160002060008282546123049190612e48565b92505081905550816002600083815260200190815260200160002060006101000a81548173ffffffffffffffffffffffffffffffffffffffff021916908373ffffffffffffffffffffffffffffffffffffffff160217905550808273ffffffffffffffffffffffffffffffffffffffff16600073ffffffffffffffffffffffffffffffffffffffff167fddf252ad1be2c89b69c2b068fc378daa952ba7f163c4a11628f55a4df523b3ef60405160405180910390a46123c560008383611ea9565b5050565b6000808273ffffffffffffffffffffffffffffffffffffffff163b119050919050565b604051806080016040528060008152602001600073ffffffffffffffffffffffffffffffffffffffff168152602001600073ffffffffffffffffffffffffffffffffffffffff1681526020016000151581525090565b82805461244e90612f44565b90600052602060002090601f01602090048101928261247057600085556124b7565b82601f1061248957805160ff19168380011785556124b7565b828001600101855582156124b7579182015b828111156124b657825182559160200191906001019061249b565b5b5090506124c491906124c8565b5090565b5b808211156124e15760008160009055506001016124c9565b5090565b6000604051905090565b600080fd5b600080fd5b60007fffffffff0000000000000000000000000000000000000000000000000000000082169050919050565b61252e816124f9565b811461253957600080fd5b50565b60008135905061254b81612525565b92915050565b600060208284031215612567576125666124ef565b5b60006125758482850161253c565b91505092915050565b60008115159050919050565b6125938161257e565b82525050565b60006020820190506125ae600083018461258a565b92915050565b600073ffffffffffffffffffffffffffffffffffffffff82169050919050565b60006125df826125b4565b9050919050565b6125ef816125d4565b81146125fa57600080fd5b50565b60008135905061260c816125e6565b92915050565b600060208284031215612628576126276124ef565b5b6000612636848285016125fd565b91505092915050565b600081519050919050565b600082825260208201905092915050565b6000819050602082019050919050565b6000819050919050565b61267e8161266b565b82525050565b600061268f826125b4565b9050919050565b61269f81612684565b82525050565b6126ae8161257e565b82525050565b6080820160008201516126ca6000850182612675565b5060208201516126dd6020850182612696565b5060408201516126f06040850182612696565b50606082015161270360608501826126a5565b50505050565b600061271583836126b4565b60808301905092915050565b6000602082019050919050565b60006127398261263f565b612743818561264a565b935061274e8361265b565b8060005b8381101561277f5781516127668882612709565b975061277183612721565b925050600181019050612752565b5085935050505092915050565b600060208201905081810360008301526127a6818461272e565b905092915050565b600081519050919050565b600082825260208201905092915050565b60005b838110156127e85780820151818401526020810190506127cd565b838111156127f7576000848401525b50505050565b6000601f19601f8301169050919050565b6000612819826127ae565b61282381856127b9565b93506128338185602086016127ca565b61283c816127fd565b840191505092915050565b60006020820190508181036000830152612861818461280e565b905092915050565b6128728161266b565b811461287d57600080fd5b50565b60008135905061288f81612869565b92915050565b6000602082840312156128ab576128aa6124ef565b5b60006128b984828501612880565b91505092915050565b6128cb816125d4565b82525050565b60006020820190506128e660008301846128c2565b92915050565b60008060408385031215612903576129026124ef565b5b6000612911858286016125fd565b925050602061292285828601612880565b9150509250929050565b600080600060608486031215612945576129446124ef565b5b6000612953868287016125fd565b9350506020612964868287016125fd565b925050604061297586828701612880565b9150509250925092565b6129888161266b565b82525050565b60006020820190506129a3600083018461297f565b92915050565b6080820160008201516129bf6000850182612675565b5060208201516129d26020850182612696565b5060408201516129e56040850182612696565b5060608201516129f860608501826126a5565b50505050565b6000608082019050612a1360008301846129a9565b92915050565b600080fd5b600080fd5b7f4e487b7100000000000000000000000000000000000000000000000000000000600052604160045260246000fd5b612a5b826127fd565b810181811067ffffffffffffffff82111715612a7a57612a79612a23565b5b80604052505050565b6000612a8d6124e5565b9050612a998282612a52565b919050565b600067ffffffffffffffff821115612ab957612ab8612a23565b5b612ac2826127fd565b9050602081019050919050565b82818337600083830152505050565b6000612af1612aec84612a9e565b612a83565b905082815260208101848484011115612b0d57612b0c612a1e565b5b612b18848285612acf565b509392505050565b600082601f830112612b3557612b34612a19565b5b8135612b45848260208601612ade565b91505092915050565b60008060408385031215612b6557612b646124ef565b5b600083013567ffffffffffffffff811115612b8357612b826124f4565b5b612b8f85828601612b20565b9250506020612ba0858286016125fd565b9150509250929050565b612bb38161257e565b8114612bbe57600080fd5b50565b600081359050612bd081612baa565b92915050565b60008060408385031215612bed57612bec6124ef565b5b6000612bfb858286016125fd565b9250506020612c0c85828601612bc1565b9150509250929050565b600067ffffffffffffffff821115612c3157612c30612a23565b5b612c3a826127fd565b9050602081019050919050565b6000612c5a612c5584612c16565b612a83565b905082815260208101848484011115612c7657612c75612a1e565b5b612c81848285612acf565b509392505050565b600082601f830112612c9e57612c9d612a19565b5b8135612cae848260208601612c47565b91505092915050565b60008060008060808587031215612cd157612cd06124ef565b5b6000612cdf878288016125fd565b9450506020612cf0878288016125fd565b9350506040612d0187828801612880565b925050606085013567ffffffffffffffff811115612d2257612d216124f4565b5b612d2e87828801612c89565b91505092959194509250565b60008060008060808587031215612d5457612d536124ef565b5b600085013567ffffffffffffffff811115612d7257612d716124f4565b5b612d7e87828801612b20565b945050602085013567ffffffffffffffff811115612d9f57612d9e6124f4565b5b612dab87828801612b20565b9350506040612dbc87828801612880565b9250506060612dcd87828801612880565b91505092959194509250565b60008060408385031215612df057612def6124ef565b5b6000612dfe858286016125fd565b9250506020612e0f858286016125fd565b9150509250929050565b7f4e487b7100000000000000000000000000000000000000000000000000000000600052601160045260246000fd5b6000612e538261266b565b9150612e5e8361266b565b9250827fffffffffffffffffffffffffffffffffffffffffffffffffffffffffffffffff03821115612e9357612e92612e19565b5b828201905092915050565b6000612ea98261266b565b91507fffffffffffffffffffffffffffffffffffffffffffffffffffffffffffffffff8203612edb57612eda612e19565b5b600182019050919050565b7f4e487b7100000000000000000000000000000000000000000000000000000000600052603260045260246000fd5b7f4e487b7100000000000000000000000000000000000000000000000000000000600052602260045260246000fd5b60006002820490506001821680612f5c57607f821691505b602082108103612f6f57612f6e612f15565b5b50919050565b7f4552433732313a20617070726f76616c20746f2063757272656e74206f776e6560008201527f7200000000000000000000000000000000000000000000000000000000000000602082015250565b6000612fd16021836127b9565b9150612fdc82612f75565b604082019050919050565b6000602082019050818103600083015261300081612fc4565b9050919050565b7f4552433732313a20617070726f76652063616c6c6572206973206e6f7420746f60008201527f6b656e206f776e6572206e6f7220617070726f76656420666f7220616c6c0000602082015250565b6000613063603e836127b9565b915061306e82613007565b604082019050919050565b6000602082019050818103600083015261309281613056565b9050919050565b7f4552433732313a2063616c6c6572206973206e6f7420746f6b656e206f776e6560008201527f72206e6f7220617070726f766564000000000000000000000000000000000000602082015250565b60006130f5602e836127b9565b915061310082613099565b604082019050919050565b60006020820190508181036000830152613124816130e8565b9050919050565b7f4552433732313a20696e76616c696420746f6b656e2049440000000000000000600082015250565b60006131616018836127b9565b915061316c8261312b565b602082019050919050565b6000602082019050818103600083015261319081613154565b9050919050565b7f4552433732313a2061646472657373207a65726f206973206e6f74206120766160008201527f6c6964206f776e65720000000000000000000000000000000000000000000000602082015250565b60006131f36029836127b9565b91506131fe82613197565b604082019050919050565b60006020820190508181036000830152613222816131e6565b9050919050565b7f6f7267616e697a6174696f6e20697320416c726561647920526567697374657260008201527f6564000000000000000000000000000000000000000000000000000000000000602082015250565b60006132856022836127b9565b915061329082613229565b604082019050919050565b600060208201905081810360008301526132b481613278565b9050919050565b600060808201905081810360008301526132d5818761280e565b905081810360208301526132e9818661280e565b90506132f8604083018561297f565b613305606083018461297f565b95945050505050565b600081905092915050565b6000613324826127ae565b61332e818561330e565b935061333e8185602086016127ca565b80840191505092915050565b60006133568285613319565b91506133628284613319565b91508190509392505050565b7f4552433732313a207472616e736665722066726f6d20696e636f72726563742060008201527f6f776e6572000000000000000000000000000000000000000000000000000000602082015250565b60006133ca6025836127b9565b91506133d58261336e565b604082019050919050565b600060208201905081810360008301526133f9816133bd565b9050919050565b7f4552433732313a207472616e7366657220746f20746865207a65726f2061646460008201527f7265737300000000000000000000000000000000000000000000000000000000602082015250565b600061345c6024836127b9565b915061346782613400565b604082019050919050565b6000602082019050818103600083015261348b8161344f565b9050919050565b600061349d8261266b565b91506134a88361266b565b9250828210156134bb576134ba612e19565b5b828203905092915050565b7f45524337323155524953746f726167653a2055524920736574206f66206e6f6e60008201527f6578697374656e7420746f6b656e000000000000000000000000000000000000602082015250565b6000613522602e836127b9565b915061352d826134c6565b604082019050919050565b6000602082019050818103600083015261355181613515565b9050919050565b7f4552433732313a20617070726f766520746f2063616c6c657200000000000000600082015250565b600061358e6019836127b9565b915061359982613558565b602082019050919050565b600060208201905081810360008301526135bd81613581565b9050919050565b7f4552433732313a207472616e7366657220746f206e6f6e20455243373231526560008201527f63656976657220696d706c656d656e7465720000000000000000000000000000602082015250565b60006136206032836127b9565b915061362b826135c4565b604082019050919050565b6000602082019050818103600083015261364f81613613565b9050919050565b600081519050919050565b600082825260208201905092915050565b600061367d82613656565b6136878185613661565b93506136978185602086016127ca565b6136a0816127fd565b840191505092915050565b60006080820190506136c060008301876128c2565b6136cd60208301866128c2565b6136da604083018561297f565b81810360608301526136ec8184613672565b905095945050505050565b60008151905061370681612525565b92915050565b600060208284031215613722576137216124ef565b5b6000613730848285016136f7565b91505092915050565b7f4e487b7100000000000000000000000000000000000000000000000000000000600052601260045260246000fd5b60006137738261266b565b915061377e8361266b565b92508261378e5761378d613739565b5b828204905092915050565b60006137a48261266b565b91506137af8361266b565b9250826137bf576137be613739565b5b828206905092915050565b7f4552433732313a206d696e7420746f20746865207a65726f2061646472657373600082015250565b60006138006020836127b9565b915061380b826137ca565b602082019050919050565b6000602082019050818103600083015261382f816137f3565b9050919050565b7f4552433732313a20746f6b656e20616c7265616479206d696e74656400000000600082015250565b600061386c601c836127b9565b915061387782613836565b602082019050919050565b6000602082019050818103600083015261389b8161385f565b905091905056fea26469706673582212201eb8c1466ebb740e6a6bad99d8147c6ccabcbf8c26460b5f5b3fdb36b9de198264736f6c634300080d0033",
  "immutableReferences": {},
  "source": "//SPDX-License-Identifier: MIT\r\npragma solidity ^0.8.13;\r\nimport \"@openzeppelin/contracts/utils/Counters.sol\";\r\nimport \"@openzeppelin/contracts/token/ERC721/extensions/ERC721URIStorage.sol\";\r\nimport \"@openzeppelin/contracts/token/ERC721/ERC721.sol\";\r\n\r\ncontract XRC721 is ERC721URIStorage {\r\n    address payable creator;\r\n    using Counters for Counters.Counter;\r\n    Counters.Counter private _tokenIds;\r\n\r\n    struct Organization {\r\n        string companyName;\r\n        string location;\r\n        uint256 registrationNo;\r\n        uint256 pinCode;\r\n        bool verified;\r\n    }\r\n\r\n    event OrganizationRegistered(\r\n        string companyName,\r\n        string location,\r\n        uint256 registrationNo,\r\n        uint256 pinCode\r\n    );\r\n\r\n    mapping(address => Organization) validOrganizations;\r\n\r\n    constructor() ERC721(\"Certificates\", \"CER\") {}\r\n\r\n    struct ListedToken {\r\n        uint256 tokenId;\r\n        address payable creator;\r\n        address payable user;\r\n        bool ableToSell;\r\n    }\r\n    mapping(uint256 => ListedToken) idToListedToken;\r\n\r\n    function registerOrganization(\r\n        string memory _companyName,\r\n        string memory _location,\r\n        uint256 _registrationNo,\r\n        uint256 _pinCode\r\n    ) public {\r\n        require(\r\n            !validOrganizations[msg.sender].verified,\r\n            \"organization is Already Registered\"\r\n        );\r\n        validOrganizations[msg.sender] = Organization({\r\n            companyName: _companyName,\r\n            location: _location,\r\n            registrationNo: _registrationNo,\r\n            pinCode: _pinCode,\r\n            verified: true\r\n        });\r\n        emit OrganizationRegistered(\r\n            _companyName,\r\n            _location,\r\n            _registrationNo,\r\n            _pinCode\r\n        );\r\n    }\r\n\r\n    function isOrganizationVerified() public view returns (bool) {\r\n        return validOrganizations[msg.sender].verified;\r\n    }\r\n\r\n    //for organisation side\r\n    //get information about certificate by entering tokenId\r\n    function getListedForTokenId(\r\n        uint256 tokenId\r\n    ) public view returns (ListedToken memory) {\r\n        return idToListedToken[tokenId];\r\n    }\r\n\r\n    // return current token id\r\n    function getCurrentToken() public view returns (uint256) {\r\n        return _tokenIds.current();\r\n    }\r\n\r\n    //this function create the NFT when organisation click on button\r\n    function createToken(\r\n        string memory tokenURI,\r\n        address receiver\r\n    ) public payable returns (uint256) {\r\n        _tokenIds.increment();\r\n        uint256 currentTokenId = _tokenIds.current();\r\n        _safeMint(msg.sender, currentTokenId);\r\n        _setTokenURI(currentTokenId, tokenURI);\r\n\r\n        createListedToken(currentTokenId, receiver);\r\n\r\n        return currentTokenId;\r\n    }\r\n\r\n    // set the information about certificate and transfer certificate to user\r\n    function createListedToken(uint256 tokenId, address receiver) private {\r\n        idToListedToken[tokenId] = ListedToken(\r\n            tokenId,\r\n            payable(msg.sender),\r\n            payable(receiver),\r\n            false\r\n        );\r\n\r\n        _transfer(msg.sender, receiver, tokenId);\r\n    }\r\n\r\n    // return array of all the certificate created by organisation\r\n    function getOrganisationCertificates(\r\n        address org\r\n    ) public view returns (ListedToken[] memory) {\r\n        uint totalItemCount = _tokenIds.current();\r\n        uint itemCount = 0;\r\n        uint currentIndex = 0;\r\n\r\n        for (uint i = 0; i < totalItemCount; i++) {\r\n            if (org == idToListedToken[i + 1].creator) itemCount++;\r\n        }\r\n\r\n        ListedToken[] memory items = new ListedToken[](itemCount);\r\n        for (uint i = 0; i < totalItemCount; i++) {\r\n            if (org == idToListedToken[i + 1].creator) {\r\n                uint currentId = i + 1;\r\n                ListedToken storage currentItem = idToListedToken[currentId];\r\n                items[currentIndex] = currentItem;\r\n                currentIndex++;\r\n            }\r\n        }\r\n        return items;\r\n    }\r\n\r\n    //For user side\r\n    //Return array of all the certificates owned by User\r\n    function getUserCertificates(\r\n        address user\r\n    ) public view returns (ListedToken[] memory) {\r\n        uint totalItemCount = _tokenIds.current();\r\n        uint itemCount = 0;\r\n        uint currentIndex = 0;\r\n\r\n        for (uint i = 0; i < totalItemCount; i++) {\r\n            if (user == idToListedToken[i + 1].user) itemCount++;\r\n        }\r\n\r\n        ListedToken[] memory items = new ListedToken[](itemCount);\r\n        for (uint i = 0; i < totalItemCount; i++) {\r\n            if (user == idToListedToken[i + 1].user) {\r\n                uint currentId = i + 1;\r\n                ListedToken storage currentItem = idToListedToken[currentId];\r\n                items[currentIndex] = currentItem;\r\n                currentIndex++;\r\n            }\r\n        }\r\n        return items;\r\n    }\r\n}\r\n",
  "sourcePath": "D:\\Hackathons\\Hackverse 2.0\\Truffle\\contracts\\XRC721.sol",
  "compiler": {
    "name": "solc",
    "version": "0.8.13+commit.abaa5c0e.Emscripten.clang"
  },
  "schemaVersion": "3.4.16",
  "updatedAt": "2023-10-28T10:38:32.795Z",
  "networkType": "ethereum",
  "devdoc": {
    "kind": "dev",
    "methods": {
      "approve(address,uint256)": {
        "details": "See {IERC721-approve}."
      },
      "balanceOf(address)": {
        "details": "See {IERC721-balanceOf}."
      },
      "getApproved(uint256)": {
        "details": "See {IERC721-getApproved}."
      },
      "isApprovedForAll(address,address)": {
        "details": "See {IERC721-isApprovedForAll}."
      },
      "name()": {
        "details": "See {IERC721Metadata-name}."
      },
      "ownerOf(uint256)": {
        "details": "See {IERC721-ownerOf}."
      },
      "safeTransferFrom(address,address,uint256)": {
        "details": "See {IERC721-safeTransferFrom}."
      },
      "safeTransferFrom(address,address,uint256,bytes)": {
        "details": "See {IERC721-safeTransferFrom}."
      },
      "setApprovalForAll(address,bool)": {
        "details": "See {IERC721-setApprovalForAll}."
      },
      "supportsInterface(bytes4)": {
        "details": "See {IERC165-supportsInterface}."
      },
      "symbol()": {
        "details": "See {IERC721Metadata-symbol}."
      },
      "tokenURI(uint256)": {
        "details": "See {IERC721Metadata-tokenURI}."
      },
      "transferFrom(address,address,uint256)": {
        "details": "See {IERC721-transferFrom}."
      }
    },
    "version": 1
  },
  "userdoc": {
    "kind": "user",
    "methods": {},
    "version": 1
  }
}